{
  "contractName": "Faucet",
  "abi": [
    {
      "inputs": [],
      "name": "balance",
      "outputs": [
        {
          "internalType": "uint256",
          "name": "",
          "type": "uint256"
        }
      ],
      "stateMutability": "view",
      "type": "function",
      "constant": true
    },
    {
      "inputs": [],
      "name": "numfunders",
      "outputs": [
        {
          "internalType": "uint256",
          "name": "",
          "type": "uint256"
        }
      ],
      "stateMutability": "view",
      "type": "function",
      "constant": true
    },
    {
      "inputs": [],
      "name": "owner",
      "outputs": [
        {
          "internalType": "address",
          "name": "",
          "type": "address"
        }
      ],
      "stateMutability": "view",
      "type": "function",
      "constant": true
    },
    {
      "inputs": [],
      "name": "test3",
      "outputs": [
        {
          "internalType": "uint256",
          "name": "",
          "type": "uint256"
        }
      ],
      "stateMutability": "pure",
      "type": "function",
      "constant": true
    },
    {
      "inputs": [],
      "name": "testNum",
      "outputs": [
        {
          "internalType": "uint256",
          "name": "",
          "type": "uint256"
        }
      ],
      "stateMutability": "view",
      "type": "function",
      "constant": true
    },
    {
      "stateMutability": "payable",
      "type": "receive",
      "payable": true
    },
    {
      "inputs": [],
      "name": "emitLog",
      "outputs": [
        {
          "internalType": "bytes32",
          "name": "",
          "type": "bytes32"
        }
      ],
      "stateMutability": "pure",
      "type": "function",
      "constant": true
    },
    {
      "inputs": [],
      "name": "AddFunds",
      "outputs": [],
      "stateMutability": "payable",
      "type": "function",
      "payable": true
    },
    {
      "inputs": [
        {
          "internalType": "uint256",
          "name": "withdrawAmount",
          "type": "uint256"
        }
      ],
      "name": "WithDraw",
      "outputs": [],
      "stateMutability": "nonpayable",
      "type": "function"
    },
    {
      "inputs": [],
      "name": "ReturnFunds",
      "outputs": [
        {
          "internalType": "uint256",
          "name": "",
          "type": "uint256"
        }
      ],
      "stateMutability": "view",
      "type": "function",
      "constant": true
    },
    {
      "inputs": [],
      "name": "GetFunders",
      "outputs": [
        {
          "internalType": "address[]",
          "name": "",
          "type": "address[]"
        }
      ],
      "stateMutability": "view",
      "type": "function",
      "constant": true
    },
    {
      "inputs": [
        {
          "internalType": "uint8",
          "name": "index",
          "type": "uint8"
        }
      ],
      "name": "GetFundersPos",
      "outputs": [
        {
          "internalType": "address",
          "name": "",
          "type": "address"
        }
      ],
      "stateMutability": "view",
      "type": "function",
      "constant": true
    }
  ],
  "bytecode": "0x608060405234801561001057600080fd5b50336000806101000a81548173ffffffffffffffffffffffffffffffffffffffff021916908373ffffffffffffffffffffffffffffffffffffffff1602179055506103e8600181905550610a63806100696000396000f3fe6080604052600436106100a05760003560e01c80638da5cb5b116100645780638da5cb5b146101ad5780639cd09483146101d8578063ae28f1ed146101e2578063b69ef8a81461020d578063cbe159bb14610238578063f42c13bf14610261576100bf565b806301e0730d146100c45780630a8e8e01146100ef57806313d10ccd1461011a57806321d635de146101455780635014135a14610170576100bf565b366100bf5734600260008282546100b79190610656565b925050819055005b600080fd5b3480156100d057600080fd5b506100d961028c565b6040516100e6919061079c565b60405180910390f35b3480156100fb57600080fd5b50610104610386565b60405161011191906107cd565b60405180910390f35b34801561012657600080fd5b5061012f61038f565b60405161013c91906107cd565b60405180910390f35b34801561015157600080fd5b5061015a610395565b60405161016791906107cd565b60405180910390f35b34801561017c57600080fd5b5061019760048036038101906101929190610826565b61039d565b6040516101a49190610862565b60405180910390f35b3480156101b957600080fd5b506101c26103dd565b6040516101cf9190610862565b60405180910390f35b6101e0610401565b005b3480156101ee57600080fd5b506101f7610552565b60405161020491906107cd565b60405180910390f35b34801561021957600080fd5b50610222610558565b60405161022f91906107cd565b60405180910390f35b34801561024457600080fd5b5061025f600480360381019061025a91906108a9565b61055e565b005b34801561026d57600080fd5b506102766105f5565b60405161028391906108ef565b60405180910390f35b6060600060035467ffffffffffffffff8111156102ac576102ab61090a565b5b6040519080825280602002602001820160405280156102da5781602001602082028036833780820191505090505b50905060005b60035481101561037e576005600082815260200190815260200160002060009054906101000a900473ffffffffffffffffffffffffffffffffffffffff1682828151811061033157610330610939565b5b602002602001019073ffffffffffffffffffffffffffffffffffffffff16908173ffffffffffffffffffffffffffffffffffffffff1681525050808061037690610968565b9150506102e0565b508091505090565b60006064905090565b60035481565b600047905090565b6000600560008360ff16815260200190815260200160002060009054906101000a900473ffffffffffffffffffffffffffffffffffffffff169050919050565b60008054906101000a900473ffffffffffffffffffffffffffffffffffffffff1681565b34600260008282546104139190610656565b9250508190555060006003600081548092919061042f90610968565b9190505590506000339050600460008273ffffffffffffffffffffffffffffffffffffffff1673ffffffffffffffffffffffffffffffffffffffff16815260200190815260200160002060009054906101000a900460ff1661054e576003600081548092919061049e90610968565b91905055506001600460008373ffffffffffffffffffffffffffffffffffffffff1673ffffffffffffffffffffffffffffffffffffffff16815260200190815260200160002060006101000a81548160ff021916908315150217905550806005600084815260200190815260200160002060006101000a81548173ffffffffffffffffffffffffffffffffffffffff021916908373ffffffffffffffffffffffffffffffffffffffff1602179055505b5050565b60015481565b60025481565b8067016345785d8a00008111156105aa576040517f08c379a00000000000000000000000000000000000000000000000000000000081526004016105a190610a0d565b60405180910390fd5b3373ffffffffffffffffffffffffffffffffffffffff166108fc839081150290604051600060405180830381858888f193505050501580156105f0573d6000803e3d6000fd5b505050565b60007f48656c6c6f20576f726c64000000000000000000000000000000000000000000905090565b6000819050919050565b7f4e487b7100000000000000000000000000000000000000000000000000000000600052601160045260246000fd5b60006106618261061d565b915061066c8361061d565b9250827fffffffffffffffffffffffffffffffffffffffffffffffffffffffffffffffff038211156106a1576106a0610627565b5b828201905092915050565b600081519050919050565b600082825260208201905092915050565b6000819050602082019050919050565b600073ffffffffffffffffffffffffffffffffffffffff82169050919050565b6000610703826106d8565b9050919050565b610713816106f8565b82525050565b6000610725838361070a565b60208301905092915050565b6000602082019050919050565b6000610749826106ac565b61075381856106b7565b935061075e836106c8565b8060005b8381101561078f5781516107768882610719565b975061078183610731565b925050600181019050610762565b5085935050505092915050565b600060208201905081810360008301526107b6818461073e565b905092915050565b6107c78161061d565b82525050565b60006020820190506107e260008301846107be565b92915050565b600080fd5b600060ff82169050919050565b610803816107ed565b811461080e57600080fd5b50565b600081359050610820816107fa565b92915050565b60006020828403121561083c5761083b6107e8565b5b600061084a84828501610811565b91505092915050565b61085c816106f8565b82525050565b60006020820190506108776000830184610853565b92915050565b6108868161061d565b811461089157600080fd5b50565b6000813590506108a38161087d565b92915050565b6000602082840312156108bf576108be6107e8565b5b60006108cd84828501610894565b91505092915050565b6000819050919050565b6108e9816108d6565b82525050565b600060208201905061090460008301846108e0565b92915050565b7f4e487b7100000000000000000000000000000000000000000000000000000000600052604160045260246000fd5b7f4e487b7100000000000000000000000000000000000000000000000000000000600052603260045260246000fd5b60006109738261061d565b91507fffffffffffffffffffffffffffffffffffffffffffffffffffffffffffffffff82036109a5576109a4610627565b5b600182019050919050565b600082825260208201905092915050565b7f576974686472617720616d6f756e74206e6f742076616c696400000000000000600082015250565b60006109f76019836109b0565b9150610a02826109c1565b602082019050919050565b60006020820190508181036000830152610a26816109ea565b905091905056fea2646970667358221220f3c69368c7b06a3a387f8265ed37210d937fb43c1e989045a4e2702e0981021b64736f6c634300080d0033",
  "immutableReferences": {},
  "source": "// SPDX-License-Identifier: MIT\r\npragma solidity ^0.8.13;\r\n\r\nimport \"./Logger.sol\";\r\nimport \"./Owner.sol\";\r\nimport \"./IFaucet.sol\";\r\n\r\ncontract Faucet is Owner, Logger, IFaucet {\r\n\r\n    uint public balance;\r\n    uint public numfunders;\r\n    \r\n    mapping(address => bool) private funders;\r\n    mapping(uint => address) private lutFunders;\r\n\r\n    function emitLog() public override pure returns(bytes32) {\r\n        return \"Hello World\";\r\n    }\r\n\r\n    receive() external payable {\r\n        balance += msg.value;\r\n    }\r\n\r\n    modifier limitWithdraw(uint withdrawAmount) {\r\n        require(\r\n            withdrawAmount <= 100000000000000000, \r\n            \"Withdraw amount not valid\"\r\n        );\r\n        _;\r\n    }\r\n\r\n    function AddFunds() external override payable {\r\n        balance += msg.value;\r\n        // funders.push(msg.sender);\r\n        uint index = numfunders++;\r\n        // funders[index] = msg.sender;\r\n        address funder = msg.sender;\r\n        if (!funders[funder]) {\r\n            numfunders++;\r\n            funders[funder] = true;\r\n            lutFunders[index] = funder;\r\n        }\r\n    }\r\n\r\n    function WithDraw(uint withdrawAmount) external override limitWithdraw(withdrawAmount) {\r\n        payable(msg.sender).transfer(withdrawAmount);\r\n    }\r\n\r\n    function ReturnFunds() external view returns (uint) {\r\n        return address(this).balance;\r\n    }\r\n\r\n    function GetFunders() external view returns(address[] memory) {\r\n        address[] memory _funders = new address[](numfunders);\r\n        for (uint i = 0; i < numfunders; i++) {\r\n            _funders[i] = lutFunders[i];\r\n        }\r\n        return _funders;\r\n    } \r\n\r\n    function GetFundersPos(uint8 index) external view returns(address) {\r\n        // address[] memory _funders = this.GetFunders();\r\n        return lutFunders[index];\r\n    }  \r\n}\r\n\r\n// const instance = await Faucet.deployed();\r\n\r\n// instance.AddFunds({from: accounts[0], value: \"2000000000000000000\"})\r\n// instance.AddFunds({from: accounts[1], value: \"2000000000000000000\"})\r\n\r\n// instance.Withdraw(\"500000000000000000\", {from: accounts[1]})\r\n\r\n// instance.GetFundersPos(0)\r\n// instance.GetFunders()\r\n ",
  "sourcePath": "E:\\3-2 Semester\\CSE-3200\\BlockChain\\faucet\\contracts\\Faucet.sol",
  "compiler": {
    "name": "solc",
    "version": "0.8.13+commit.abaa5c0e.Emscripten.clang"
  },
  "schemaVersion": "3.4.16",
  "updatedAt": "2025-03-20T18:54:25.982Z",
  "networkType": "ethereum",
  "devdoc": {
    "kind": "dev",
    "methods": {},
    "version": 1
  },
  "userdoc": {
    "kind": "user",
    "methods": {},
    "version": 1
  }
}