{
  "contractName": "Faucet",
  "abi": [
    {
      "inputs": [],
      "name": "balance",
      "outputs": [
        {
          "internalType": "uint256",
          "name": "",
          "type": "uint256"
        }
      ],
      "stateMutability": "view",
      "type": "function"
    },
    {
      "inputs": [],
      "name": "numfunders",
      "outputs": [
        {
          "internalType": "uint256",
          "name": "",
          "type": "uint256"
        }
      ],
      "stateMutability": "view",
      "type": "function"
    },
    {
      "inputs": [],
      "name": "owner",
      "outputs": [
        {
          "internalType": "address",
          "name": "",
          "type": "address"
        }
      ],
      "stateMutability": "view",
      "type": "function"
    },
    {
      "inputs": [],
      "name": "test3",
      "outputs": [
        {
          "internalType": "uint256",
          "name": "",
          "type": "uint256"
        }
      ],
      "stateMutability": "pure",
      "type": "function"
    },
    {
      "inputs": [],
      "name": "testNum",
      "outputs": [
        {
          "internalType": "uint256",
          "name": "",
          "type": "uint256"
        }
      ],
      "stateMutability": "view",
      "type": "function"
    },
    {
      "stateMutability": "payable",
      "type": "receive"
    },
    {
      "inputs": [],
      "name": "emitLog",
      "outputs": [
        {
          "internalType": "bytes32",
          "name": "",
          "type": "bytes32"
        }
      ],
      "stateMutability": "pure",
      "type": "function"
    },
    {
      "inputs": [],
      "name": "AddFunds",
      "outputs": [],
      "stateMutability": "payable",
      "type": "function"
    },
    {
      "inputs": [
        {
          "internalType": "uint256",
          "name": "withdrawAmount",
          "type": "uint256"
        }
      ],
      "name": "WithDraw",
      "outputs": [],
      "stateMutability": "nonpayable",
      "type": "function"
    },
    {
      "inputs": [],
      "name": "ReturnFunds",
      "outputs": [
        {
          "internalType": "uint256",
          "name": "",
          "type": "uint256"
        }
      ],
      "stateMutability": "view",
      "type": "function"
    },
    {
      "inputs": [],
      "name": "GetFunders",
      "outputs": [
        {
          "internalType": "address[]",
          "name": "",
          "type": "address[]"
        }
      ],
      "stateMutability": "view",
      "type": "function"
    },
    {
      "inputs": [
        {
          "internalType": "uint8",
          "name": "index",
          "type": "uint8"
        }
      ],
      "name": "GetFundersPos",
      "outputs": [
        {
          "internalType": "address",
          "name": "",
          "type": "address"
        }
      ],
      "stateMutability": "view",
      "type": "function"
    }
  ],
  "bytecode": "0x608060405234801561000f575f80fd5b50335f806101000a81548173ffffffffffffffffffffffffffffffffffffffff021916908373ffffffffffffffffffffffffffffffffffffffff1602179055506103e86001819055506109ec806100655f395ff3fe60806040526004361061009f575f3560e01c80638da5cb5b116100635780638da5cb5b146101a55780639cd09483146101cf578063ae28f1ed146101d9578063b69ef8a814610203578063cbe159bb1461022d578063f42c13bf14610255576100bd565b806301e0730d146100c15780630a8e8e01146100eb57806313d10ccd1461011557806321d635de1461013f5780635014135a14610169576100bd565b366100bd573460025f8282546100b59190610628565b925050819055005b5f80fd5b3480156100cc575f80fd5b506100d561027f565b6040516100e29190610742565b60405180910390f35b3480156100f6575f80fd5b506100ff610374565b60405161010c9190610771565b60405180910390f35b348015610120575f80fd5b5061012961037c565b6040516101369190610771565b60405180910390f35b34801561014a575f80fd5b50610153610382565b6040516101609190610771565b60405180910390f35b348015610174575f80fd5b5061018f600480360381019061018a91906107c4565b610389565b60405161019c91906107fe565b60405180910390f35b3480156101b0575f80fd5b506101b96103c5565b6040516101c691906107fe565b60405180910390f35b6101d76103e8565b005b3480156101e4575f80fd5b506101ed61052b565b6040516101fa9190610771565b60405180910390f35b34801561020e575f80fd5b50610217610531565b6040516102249190610771565b60405180910390f35b348015610238575f80fd5b50610253600480360381019061024e9190610841565b610537565b005b348015610260575f80fd5b506102696105cb565b6040516102769190610884565b60405180910390f35b60605f60035467ffffffffffffffff81111561029e5761029d61089d565b5b6040519080825280602002602001820160405280156102cc5781602001602082028036833780820191505090505b5090505f5b60035481101561036c5760055f8281526020019081526020015f205f9054906101000a900473ffffffffffffffffffffffffffffffffffffffff1682828151811061031f5761031e6108ca565b5b602002602001019073ffffffffffffffffffffffffffffffffffffffff16908173ffffffffffffffffffffffffffffffffffffffff16815250508080610364906108f7565b9150506102d1565b508091505090565b5f6064905090565b60035481565b5f47905090565b5f60055f8360ff1681526020019081526020015f205f9054906101000a900473ffffffffffffffffffffffffffffffffffffffff169050919050565b5f8054906101000a900473ffffffffffffffffffffffffffffffffffffffff1681565b3460025f8282546103f99190610628565b925050819055505f60035f815480929190610413906108f7565b9190505590505f33905060045f8273ffffffffffffffffffffffffffffffffffffffff1673ffffffffffffffffffffffffffffffffffffffff1681526020019081526020015f205f9054906101000a900460ff166105275760035f81548092919061047d906108f7565b9190505550600160045f8373ffffffffffffffffffffffffffffffffffffffff1673ffffffffffffffffffffffffffffffffffffffff1681526020019081526020015f205f6101000a81548160ff0219169083151502179055508060055f8481526020019081526020015f205f6101000a81548173ffffffffffffffffffffffffffffffffffffffff021916908373ffffffffffffffffffffffffffffffffffffffff1602179055505b5050565b60015481565b60025481565b8067016345785d8a0000811115610583576040517f08c379a000000000000000000000000000000000000000000000000000000000815260040161057a90610998565b60405180910390fd5b3373ffffffffffffffffffffffffffffffffffffffff166108fc8390811502906040515f60405180830381858888f193505050501580156105c6573d5f803e3d5ffd5b505050565b5f7f48656c6c6f20576f726c64000000000000000000000000000000000000000000905090565b5f819050919050565b7f4e487b71000000000000000000000000000000000000000000000000000000005f52601160045260245ffd5b5f610632826105f2565b915061063d836105f2565b9250828201905080821115610655576106546105fb565b5b92915050565b5f81519050919050565b5f82825260208201905092915050565b5f819050602082019050919050565b5f73ffffffffffffffffffffffffffffffffffffffff82169050919050565b5f6106ad82610684565b9050919050565b6106bd816106a3565b82525050565b5f6106ce83836106b4565b60208301905092915050565b5f602082019050919050565b5f6106f08261065b565b6106fa8185610665565b935061070583610675565b805f5b8381101561073557815161071c88826106c3565b9750610727836106da565b925050600181019050610708565b5085935050505092915050565b5f6020820190508181035f83015261075a81846106e6565b905092915050565b61076b816105f2565b82525050565b5f6020820190506107845f830184610762565b92915050565b5f80fd5b5f60ff82169050919050565b6107a38161078e565b81146107ad575f80fd5b50565b5f813590506107be8161079a565b92915050565b5f602082840312156107d9576107d861078a565b5b5f6107e6848285016107b0565b91505092915050565b6107f8816106a3565b82525050565b5f6020820190506108115f8301846107ef565b92915050565b610820816105f2565b811461082a575f80fd5b50565b5f8135905061083b81610817565b92915050565b5f602082840312156108565761085561078a565b5b5f6108638482850161082d565b91505092915050565b5f819050919050565b61087e8161086c565b82525050565b5f6020820190506108975f830184610875565b92915050565b7f4e487b71000000000000000000000000000000000000000000000000000000005f52604160045260245ffd5b7f4e487b71000000000000000000000000000000000000000000000000000000005f52603260045260245ffd5b5f610901826105f2565b91507fffffffffffffffffffffffffffffffffffffffffffffffffffffffffffffffff8203610933576109326105fb565b5b600182019050919050565b5f82825260208201905092915050565b7f576974686472617720616d6f756e74206e6f742076616c6964000000000000005f82015250565b5f61098260198361093e565b915061098d8261094e565b602082019050919050565b5f6020820190508181035f8301526109af81610976565b905091905056fea26469706673582212202edea68c5ae2f414485561d1dd65a907955fa6c5f4e929465a3a211fcde0bb8e64736f6c63430008150033",
  "immutableReferences": {},
  "source": "// SPDX-License-Identifier: MIT\r\npragma solidity ^0.8.21;\r\n\r\nimport \"./Logger.sol\";\r\nimport \"./Owner.sol\";\r\nimport \"./IFaucet.sol\";\r\n\r\ncontract Faucet is Owner, Logger, IFaucet {\r\n\r\n    uint public balance;\r\n    uint public numfunders;\r\n    \r\n    mapping(address => bool) private funders;\r\n    mapping(uint => address) private lutFunders;\r\n\r\n    function emitLog() public override pure returns(bytes32) {\r\n        return \"Hello World\";\r\n    }\r\n\r\n    receive() external payable {\r\n        balance += msg.value;\r\n    }\r\n\r\n    modifier limitWithdraw(uint withdrawAmount) {\r\n        require(\r\n            withdrawAmount <= 100000000000000000, \r\n            \"Withdraw amount not valid\"\r\n        );\r\n        _;\r\n    }\r\n\r\n    function AddFunds() external override payable {\r\n        balance += msg.value;\r\n        // funders.push(msg.sender);\r\n        uint index = numfunders++;\r\n        // funders[index] = msg.sender;\r\n        address funder = msg.sender;\r\n        if (!funders[funder]) {\r\n            numfunders++;\r\n            funders[funder] = true;\r\n            lutFunders[index] = funder;\r\n        }\r\n    }\r\n\r\n    function WithDraw(uint withdrawAmount) external override limitWithdraw(withdrawAmount) {\r\n        payable(msg.sender).transfer(withdrawAmount);\r\n    }\r\n\r\n    function ReturnFunds() external view returns (uint) {\r\n        return address(this).balance;\r\n    }\r\n\r\n    function GetFunders() external view returns(address[] memory) {\r\n        address[] memory _funders = new address[](numfunders);\r\n        for (uint i = 0; i < numfunders; i++) {\r\n            _funders[i] = lutFunders[i];\r\n        }\r\n        return _funders;\r\n    } \r\n\r\n    function GetFundersPos(uint8 index) external view returns(address) {\r\n        // address[] memory _funders = this.GetFunders();\r\n        return lutFunders[index];\r\n    }  \r\n}\r\n\r\n// const instance = await Faucet.deployed();\r\n\r\n// instance.AddFunds({from: accounts[0], value: \"2000000000000000000\"})\r\n// instance.AddFunds({from: accounts[1], value: \"2000000000000000000\"})\r\n\r\n// instance.Withdraw(\"500000000000000000\", {from: accounts[1]})\r\n\r\n// instance.GetFundersPos(0)\r\n// instance.GetFunders()\r\n ",
  "sourcePath": "E:\\3-2 Semester\\CSE-3200\\BlockChain\\faucet\\contracts\\Faucet.sol",
  "compiler": {
    "name": "solc",
    "version": "0.8.21+commit.d9974bed.Emscripten.clang"
  },
  "schemaVersion": "3.4.16",
  "updatedAt": "2025-03-20T16:35:32.307Z",
  "devdoc": {
    "kind": "dev",
    "methods": {},
    "version": 1
  },
  "userdoc": {
    "kind": "user",
    "methods": {},
    "version": 1
  }
}