{
  "contractName": "Owner",
  "abi": [
    {
      "inputs": [],
      "stateMutability": "nonpayable",
      "type": "constructor"
    },
    {
      "inputs": [],
      "name": "owner",
      "outputs": [
        {
          "internalType": "address",
          "name": "",
          "type": "address"
        }
      ],
      "stateMutability": "view",
      "type": "function"
    }
  ],
  "bytecode": "0x608060405234801561000f575f80fd5b50335f806101000a81548173ffffffffffffffffffffffffffffffffffffffff021916908373ffffffffffffffffffffffffffffffffffffffff16021790555060ef8061005b5f395ff3fe6080604052348015600e575f80fd5b50600436106026575f3560e01c80638da5cb5b14602a575b5f80fd5b60306044565b604051603b919060a2565b60405180910390f35b5f8054906101000a900473ffffffffffffffffffffffffffffffffffffffff1681565b5f73ffffffffffffffffffffffffffffffffffffffff82169050919050565b5f608e826067565b9050919050565b609c816086565b82525050565b5f60208201905060b35f8301846095565b9291505056fea2646970667358221220b0ae30596ee18a4e333a546bb3e5bda8350127d3a10959cd12223b59426af86a64736f6c63430008150033",
  "immutableReferences": {},
  "source": "// SPDX-License-Identifier: MIT\r\npragma solidity ^0.8.21;\r\n\r\ncontract Owner {\r\n    address public owner;\r\n\r\n    constructor() {\r\n        owner = msg.sender;\r\n    }\r\n}\r\n",
  "sourcePath": "E:\\3-2 Semester\\CSE-3200\\BlockChain\\faucet\\contracts\\Owner.sol",
  "compiler": {
    "name": "solc",
    "version": "0.8.21+commit.d9974bed.Emscripten.clang"
  },
  "schemaVersion": "3.4.16",
  "updatedAt": "2025-03-20T16:35:32.318Z",
  "devdoc": {
    "kind": "dev",
    "methods": {},
    "version": 1
  },
  "userdoc": {
    "kind": "user",
    "methods": {},
    "version": 1
  }
}