{
  "contractName": "Storage",
  "abi": [
    {
      "inputs": [],
      "stateMutability": "nonpayable",
      "type": "constructor"
    },
    {
      "inputs": [],
      "name": "a",
      "outputs": [
        {
          "internalType": "uint8",
          "name": "",
          "type": "uint8"
        }
      ],
      "stateMutability": "view",
      "type": "function"
    },
    {
      "inputs": [
        {
          "internalType": "uint256",
          "name": "",
          "type": "uint256"
        }
      ],
      "name": "aa",
      "outputs": [
        {
          "internalType": "uint256",
          "name": "",
          "type": "uint256"
        }
      ],
      "stateMutability": "view",
      "type": "function"
    },
    {
      "inputs": [],
      "name": "b",
      "outputs": [
        {
          "internalType": "uint16",
          "name": "",
          "type": "uint16"
        }
      ],
      "stateMutability": "view",
      "type": "function"
    },
    {
      "inputs": [
        {
          "internalType": "address",
          "name": "",
          "type": "address"
        }
      ],
      "name": "bb",
      "outputs": [
        {
          "internalType": "uint256",
          "name": "",
          "type": "uint256"
        }
      ],
      "stateMutability": "view",
      "type": "function"
    },
    {
      "inputs": [],
      "name": "c",
      "outputs": [
        {
          "internalType": "address",
          "name": "",
          "type": "address"
        }
      ],
      "stateMutability": "view",
      "type": "function"
    },
    {
      "inputs": [
        {
          "internalType": "uint256",
          "name": "",
          "type": "uint256"
        }
      ],
      "name": "cc",
      "outputs": [
        {
          "internalType": "uint256",
          "name": "",
          "type": "uint256"
        }
      ],
      "stateMutability": "view",
      "type": "function"
    },
    {
      "inputs": [],
      "name": "e",
      "outputs": [
        {
          "internalType": "uint64",
          "name": "",
          "type": "uint64"
        }
      ],
      "stateMutability": "view",
      "type": "function"
    },
    {
      "inputs": [],
      "name": "f",
      "outputs": [
        {
          "internalType": "uint256",
          "name": "",
          "type": "uint256"
        }
      ],
      "stateMutability": "view",
      "type": "function"
    },
    {
      "inputs": [],
      "name": "g",
      "outputs": [
        {
          "internalType": "uint8",
          "name": "",
          "type": "uint8"
        }
      ],
      "stateMutability": "view",
      "type": "function"
    },
    {
      "inputs": [],
      "name": "h",
      "outputs": [
        {
          "internalType": "uint256",
          "name": "",
          "type": "uint256"
        }
      ],
      "stateMutability": "view",
      "type": "function"
    }
  ],
  "bytecode": "0x6080604052600760035f6101000a81548160ff021916908360ff160217905550600a600360016101000a81548161ffff021916908361ffff16021790555073648faad551af1da6d6556f0e3c41b37b6055bad16003806101000a81548173ffffffffffffffffffffffffffffffffffffffff021916908373ffffffffffffffffffffffffffffffffffffffff1602179055506001600360176101000a81548160ff021916908315150217905550600f600360186101000a81548167ffffffffffffffff021916908367ffffffffffffffff16021790555060c8600455602860055f6101000a81548160ff021916908360ff160217905550610315600655348015610107575f80fd5b506002600a908060018154018082558091505060019003905f5260205f20015f909190919091505560026064908060018154018082558091505060019003905f5260205f20015f909190919091505560026103e8908060018154018082558091505060019003905f5260205f20015f909190919091505560045f80600281526020019081526020015f2081905550600a5f80600381526020019081526020015f2081905550606460015f73f8929048d74164582e5fa0897fc654cbf0c096c673ffffffffffffffffffffffffffffffffffffffff1673ffffffffffffffffffffffffffffffffffffffff1681526020019081526020015f20819055506104de806102105f395ff3fe608060405234801561000f575f80fd5b506004361061009c575f3560e01c8063c3da42b811610064578063c3da42b814610148578063e1d9bbbd14610166578063e2179b8e14610196578063eb366c13146101b4578063ffae15ba146101e45761009c565b80630dbe671f146100a057806326121ff0146100be5780634df7e3d0146100dc5780637323febe146100fa578063b8c9d3651461012a575b5f80fd5b6100a8610202565b6040516100b591906102e8565b60405180910390f35b6100c6610214565b6040516100d39190610319565b60405180910390f35b6100e461021a565b6040516100f1919061034e565b60405180910390f35b610114600480360381019061010f9190610395565b61022e565b6040516101219190610319565b60405180910390f35b610132610242565b60405161013f9190610319565b60405180910390f35b610150610248565b60405161015d91906103ff565b60405180910390f35b610180600480360381019061017b9190610442565b61026c565b60405161018d9190610319565b60405180910390f35b61019e610281565b6040516101ab91906102e8565b60405180910390f35b6101ce60048036038101906101c99190610395565b610293565b6040516101db9190610319565b60405180910390f35b6101ec6102b3565b6040516101f9919061048f565b60405180910390f35b60035f9054906101000a900460ff1681565b60045481565b600360019054906101000a900461ffff1681565b5f602052805f5260405f205f915090505481565b60065481565b60038054906101000a900473ffffffffffffffffffffffffffffffffffffffff1681565b6001602052805f5260405f205f915090505481565b60055f9054906101000a900460ff1681565b600281815481106102a2575f80fd5b905f5260205f20015f915090505481565b600360189054906101000a900467ffffffffffffffff1681565b5f60ff82169050919050565b6102e2816102cd565b82525050565b5f6020820190506102fb5f8301846102d9565b92915050565b5f819050919050565b61031381610301565b82525050565b5f60208201905061032c5f83018461030a565b92915050565b5f61ffff82169050919050565b61034881610332565b82525050565b5f6020820190506103615f83018461033f565b92915050565b5f80fd5b61037481610301565b811461037e575f80fd5b50565b5f8135905061038f8161036b565b92915050565b5f602082840312156103aa576103a9610367565b5b5f6103b784828501610381565b91505092915050565b5f73ffffffffffffffffffffffffffffffffffffffff82169050919050565b5f6103e9826103c0565b9050919050565b6103f9816103df565b82525050565b5f6020820190506104125f8301846103f0565b92915050565b610421816103df565b811461042b575f80fd5b50565b5f8135905061043c81610418565b92915050565b5f6020828403121561045757610456610367565b5b5f6104648482850161042e565b91505092915050565b5f67ffffffffffffffff82169050919050565b6104898161046d565b82525050565b5f6020820190506104a25f830184610480565b9291505056fea2646970667358221220733678f56c09d494ad261acf45b999fefc57bcc672502c69861711ef04a89f7864736f6c63430008150033",
  "immutableReferences": {},
  "source": "// SPDX-License-Identifier: MIT\r\npragma solidity ^0.8.21;\r\n\r\ncontract Storage {\r\n\r\n    mapping(uint => uint) public aa; // slot 0\r\n    mapping(address => uint) public bb; // slot 1\r\n\r\n    uint[] public cc; // slot 2\r\n\r\n    uint8 public a = 7; // 1 byte\r\n    uint16 public b = 10; // 2 bytes\r\n    address public c = 0x648FaaD551af1DA6d6556f0E3C41B37B6055bAD1; // 20bytes\r\n    bool d = true; // 1 byte\r\n    uint64 public e = 15; // 8 bytes\r\n    // 32 bytes, all values will be stored in slot 3\r\n\r\n    // 0x 0f 01 648faad551af1da6d6556f0e3c41b37b6055bad1 000a 07\r\n\r\n    uint256 public f = 200; // 32 bytes -> slot 4\r\n\r\n    uint8 public g = 40; // 1 byte -> slot 5\r\n    \r\n\r\n    uint256 public h = 789; // 32 bytes -> slot 6\r\n\r\n    constructor() {\r\n        cc.push(10);\r\n        cc.push(100);\r\n        cc.push(1000);\r\n        aa[2] = 4;\r\n        aa[3] = 10;\r\n        bb[0xf8929048D74164582E5FA0897fC654CbF0c096C6] = 100;\r\n    }\r\n}",
  "sourcePath": "E:\\3-2 Semester\\CSE-3200\\BlockChain\\faucet\\contracts\\Storage.sol",
  "compiler": {
    "name": "solc",
    "version": "0.8.21+commit.d9974bed.Emscripten.clang"
  },
  "schemaVersion": "3.4.16",
  "updatedAt": "2025-03-20T16:35:32.320Z",
  "devdoc": {
    "kind": "dev",
    "methods": {},
    "version": 1
  },
  "userdoc": {
    "kind": "user",
    "methods": {},
    "version": 1
  }
}